:100000000C94F7010C941F020C941F020C941F0215
:100010000C941F020C941F020C941F020C941F02DC
:100020000C941F020C941F020C941F020C941F02CC
:100030000C941F020C941F020C941F020C941F02BC
:100040000C94E1060C941F020C941F020C941F02E6
:100050000C941F020C941F020C941F020C941F029C
:100060000C941F020C941F020406205F0000000382
:10007000A000C00C00F94F806BEB00988C8052A55B
:100080008003000001C88089C00050850021C200A3
:10009000084000208200002000188C00FA2F804BBE
:1000A000E0805A66808AA500E08F80EAAB0072A9E2
:1000B000009A8C00FAAF804AA70001400009400076
:1000C00021488051450089420042660072A6807A2C
:1000D0008780FAA500722500FA2700FAA880FA881E
:1000E00000722B00F88F808BE8808BE800F88D8001
:1000F000F82080F90F80F9CF80722700FA8400720F
:100100002740FA85804AA90083E800F02F00E06EBE
:1001100000F0EF00D88D80C0EC009AAC8003E8803E
:10012000C081808BE000420400082080020400317E
:100130002380F92300312480312F8031628023EA2B
:1001400000255380F9038002E00006E000F84280B9
:1001500003E0007987803903803123007D2300315B
:1001600027C078840029400043E4007027006066BF
:100170000070670048C48074578059E68023E88087
:100180000360008BE200610C000E182D0D000000D2
:1001900000000000000000000000000000103838DF
:1001A00038383838383810000000000000000000EF
:1001B000000000000000000000000000000000003F
:1001C000000000000000000000000000000000002F
:1001D000000000000000000040E0E04000000000DF
:1001E00000000002060E0E0E0E0E0E0602000000AB
:1001F000001038383838383838381000000000809F
:10020000C0E0E0E0E0E0E0C080000000FCFAF60EB4
:100210000E0E0E0E0EF6FAFC0000EFC78300000073
:1002200000000083C7EF00007FBFDFE0E0E0E0E018
:10023000E0DFBF7F0000000000000000000000F0D1
:10024000F8FC000000000000000000000083C7EF81
:1002500000000000000000000000001F3F7F0000C1
:100260000002060E0E0E0E0E0EF6FAFC0000E0D096
:10027000B83838383838383B170F00007FBFDFE018
:10028000E0E0E0E0E0C0800000000002060E0E0E9C
:100290000E0E0EF6FAFC00000010383838383838E8
:1002A00038BBD7EF00000080C0E0E0E0E0E0E0DF36
:1002B000BF7F0000FCF8F0000000000000F0F8FC38
:1002C00000000F173B383838383838BBD7EF0000FC
:1002D0000000000000000000001F3F7F0000FCFA4B
:1002E000F60E0E0E0E0E0E06020000000F173B3823
:1002F0003838383838B8D0E000000080C0E0E0E09E
:10030000E0E0E0DFBF7F0000FCFAF60E0E0E0E0EFE
:100310000E0602000000EFD7BB383838383838B83E
:10032000D0E000007FBFDFE0E0E0E0E0E0DFBF7FA3
:1003300000000002060E0E0E0E0E0EF6FAFC000075
:1003400000000000000000000083C7EF0000000074
:10035000000000000000001F3F7F0000FCFAF60EC6
:100360000E0E0E0E0EF6FAFC0000EFD7BB38383832
:10037000383838BBD7EF00007FBFDFE0E0E0E0E0D7
:10038000E0DFBF7F0000FCFAF60E0E0E0E0E0EF63A
:10039000FAFC00000F173B383838383838BBD7EF35
:1003A00000000080C0E0E0E0E0E0E0DFBF7F0000B0
:1003B000000000250028002B00000000002400277A
:1003C000002A0004040404040404040202020202D9
:1003D0000203030303030301020408102040800109
:1003E000020408102001020408102000270911242B
:1003F0001FBECFEFD8E0DEBFCDBF11E0A0E0B1E07F
:10040000E6E2F7E102C005900D92A831B107D9F7F5
:1004100023E0A8E1B1E001C01D92A833B207E1F7E3
:1004200011E0C7EFD1E004C02197FE010E948B0BC1
:10043000C63FD107C9F70E942B070C94910B0C946F
:10044000000090E0FC01E952FC4F24918D539C4F39
:10045000FC018491882399F090E0880F991FFC019A
:10046000E754FC4FA591B491FC01E155FC4F8591F7
:1004700094918FB7F894EC91E22BEC938FBF089591
:1004800090913301E0912D01F0912E012081909502
:1004900092239083E0912901F0912A0190913101FA
:1004A0002081611130C090959223908328E0E091E3
:1004B0002701F091280190913001308187FF25C0FC
:1004C000932B9083880F90912F01E0912501F0915B
:1004D00026013081909593239083000090912F0105
:1004E000E0912501F09126013081932B90832150DA
:1004F000F1F680913301E0912D01F0912E01908170
:10050000892B80830895922BD0CF90959323D9CFB8
:10051000CF93DF9380913503811112C060E080E4B6
:100520000E94400260E080E80E944002CDE3D1E0FA
:1005300061E089910E94400283E0C533D807C1F78A
:10054000DF91CF91089584359105F0F46033710502
:10055000D8F49B0143E0369527954A95E1F744E5A9
:10056000429FF001439FF00D1124E80FF91FEB5D4E
:10057000FE4F6770772721E030E001C0220F6A95B7
:10058000EAF7808D822B808F0895CF92DF92EF92D1
:10059000FF920F931F93CF93DF938435910598F4C7
:1005A0006033710580F47A016B018C01D0E0C0E00A
:1005B000CE15DF0544F4BE016C0D7D1DC8010E94FF
:1005C000A3022196F5CFDF91CF911F910F91FF905C
:1005D000EF90DF90CF9008958435910540F560331A
:1005E000710528F5FB0123E0F595E7952A95E1F7DC
:1005F000A4E5AE9F9001AF9F300D1124280F391F45
:100600006770772791E001C0990F6A95EAF7F901C1
:10061000EB5DFE4FBF01621B730B655271406417A7
:1006200075072CF4808D892B808F3196F3CF089538
:100630002F923F924F925F926F927F928F929F92F2
:10064000AF92BF92CF92DF92EF92FF920F931F93E0
:10065000CF93DF9300D000D0CDB7DEB79C838B83E0
:100660003B011A0102E010E0623071054CF08B0191
:10067000832D2B803C804B838C8392E0692E712CE0
:100680008B819C818219930997FFEDC08B819C819E
:100690008215930509F0F8C0601671062CF002E08F
:1006A00010E082E0682E712CA80146195709B101AB
:1006B000C3010F900F900F900F90DF91CF911F917A
:1006C0000F91FF90EF90DF90CF90BF90AF909F90F1
:1006D0008F907F906F905F904F903F902F900C94F1
:1006E000EC02C1012B813C81821B930B9A8389838D
:1006F0002301401A510AB201052C000C880B990BFA
:100700000E9493096B017C0129813A81B901330F61
:10071000880B990B0E9493094B015C0157FE03C0A3
:1007200051944194510889819A8197FF03C0919512
:1007300081959109841595050CF061C0A70196017A
:10074000C501B4010E94DC0A4B015C012B813C8194
:10075000B901330F880B990B0E9493096B017C013F
:10076000601671068CF520E030E040E05FE3C701E1
:10077000B6010E94700A0E944E0BC8010E94A3029B
:10078000A5019401C701B6010E946F0A6B017C01AB
:10079000015011090615170534F70F900F900F90AF
:1007A0000F90DF91CF911F910F91FF90EF90DF900D
:1007B000CF90BF90AF909F908F907F906F905F9001
:1007C0004F903F902F90089520E030E040E05FE3AD
:1007D000C701B6010E94700A0E944E0BC8010E9418
:1007E000A302A5019401C701B6010E94700A6B0122
:1007F0007C010F5F1F4F6016710634F7CECF8B81DF
:100800009C81281639064CF2B801110F880B990B00
:100810000E9493092B013C0120E030E040E05FE3BF
:10082000C301B2010E94700A0E944E0BCB016B8182
:100830007C810E94A302A5019401C701B6010E9418
:10084000DC0A9B01AC01C301B2010E94700A2B01BA
:100850003C012B813C812F5F3F4F3C832B83221631
:100860003306D4F69ACF8B819C818215930509F4C7
:100870001BCF902F812F8301692E782E9B818C8135
:100880003C822B82292E382E0615170509F029CF18
:100890002B813C81221633062CF0922D832D1901D9
:1008A0009B838C834B815C8142195309B101C80140
:1008B0000F900F900F900F90DF91CF911F910F919C
:1008C000FF90EF90DF90CF90BF90AF909F908F9070
:1008D0007F906F905F904F903F902F900C94C50247
:1008E00084359105F8F460337105E0F49B0143E031
:1008F000369527954A95E1F744E5429FF001439FDD
:10090000F00D1124E80FF91FEB5DFE4F677077279C
:1009100021E030E001C0220F6A95EAF72095808D32
:100920002823208F08953FB7F89480911D0190915E
:100930001E01A0911F01B091200126B5A89B05C002
:100940002F3F19F00196A11DB11D3FBFBA2FA92F4E
:10095000982F8827BC01CD01620F711D811D911D4B
:1009600042E0660F771F881F991F4A95D1F70895B7
:100970008F929F92AF92BF92CF92DF92EF92FF92AF
:100980004B015C010E9493046B017C010E94930463
:100990006C197D098E099F09683E73408105910598
:1009A000A8F321E0821A9108A108B10888EEC80EC8
:1009B00083E0D81EE11CF11C81149104A104B10450
:1009C00029F7FF90EF90DF90CF90BF90AF909F906E
:1009D0008F9008952F923F924F925F926F927F92E5
:1009E0008F929F92AF92BF92CF92DF92EF92FF923F
:1009F0000F931F93CF93DF93CDB7DEB728970FB632
:100A0000F894DEBF0FBECDBF78876F831A01FC015B
:100A100001900020E9F731979F01281B390B3A8399
:100A200029836E307742D1F44091380169817A810F
:100A3000469F9001479F300D1124E4E5F0E0E21B52
:100A4000F30BFC83EB83F7FF03C03196FC83EB834E
:100A50002B813C813595279538872F839C838B8309
:100A6000712C612C49815A81641675060CF0EEC018
:100A700090913801969D7001979DF00C11246F8123
:100A80007885E60EF71EEB81FC812191FC83EB83D8
:100A90008091390130913A01231B330B482F477065
:100AA00009F06BC0869586958695899FC0011124B3
:100AB000829FA001839F500D929F500D11249A0197
:100AC0002C5F3F4F3E832D832101B12CA12C8091BF
:100AD00039018695869586958A151B0409F00CF4D4
:100AE000B1C08D809E80870120913801C8018E1988
:100AF0009F0928171906D1F1CCF1D12CC12C809176
:100B000038018A9DF0018B9DF00D1124CF01880DD5
:100B1000991DE0913601F0913701E80FF91FE4913A
:100B200080913C01B601640D751DF0E00C2C02C0F3
:100B3000F595E7950A94E2F7E0FF06C0811106C03B
:100B4000C8010E94A30205C08111FACFC8010E940A
:100B500070043FEFC31AD30A48E0C416D10479F6F3
:100B60000F5F1F4F5FEF851A950ABECF6FEFA61A72
:100B7000B60A78E0470E511CAACF989FC0011124F5
:100B800043E0959587954A95E1F7829F6001839FA1
:100B9000D00C929FD00C112484E0C80ED11CE0919F
:100BA0003601F0913701EC0DFD1DE4914E2E512CD4
:100BB000870157E0A52EB12C20913801C8018E196C
:100BC0009F092817190609F00CF43CC0912C812CC0
:100BD000809139018815190491F18CF180913C01C3
:100BE000B401620D731D92010A2C02C03595279540
:100BF0000A94E2F720FF06C0811106C0C8010E94D6
:100C0000A30205C08111FACFC8010E94700491E0CF
:100C1000A91AB108B7FE0FC0EFEFCE1ADE0AE091B5
:100C20003601F0913701EC0DFD1DE4914E2E512C53
:100C300087E0A82EB12CFFEF8F1A9F0AC9CF0F5F54
:100C40001F4FBACF2FEF621A720A0CCF28960FB639
:100C5000F894DEBF0FBECDBFDF91CF911F910F91F2
:100C6000FF90EF90DF90CF90BF90AF909F908F90CC
:100C70007F906F905F904F903F902F9008953F929C
:100C80004F925F926F927F928F929F92AF92BF929C
:100C9000CF92DF92EF92FF920F931F93CF93DF9348
:100CA000CDB7DEB7E6970FB6F894DEBF0FBECDBF67
:100CB0002B013C016A013EAB2DAB41145104610490
:100CC000710411F580E389831A824DA95EA9B601EA
:100CD000CE0101960E94EA04E6960FB6F894DEBFB4
:100CE0000FBECDBFDF91CF911F910F91FF90EF907D
:100CF000DF90CF90BF90AF909F908F907F906F903C
:100D00005F904F903F900895312C77FE0AC0709409
:100D1000609450944094411C511C611C711C3324FC
:100D200033948E01045E1F4F78018AE0882E912C47
:100D3000A12CB12CC701801B910B411451046104FB
:100D40007104D1F0C301B201A50194010E941F0AF0
:100D500020E3260FD7012D937D01A3019201261BCD
:100D6000370B480B590BCA01B901A50194010E9428
:100D70001F0A29013A01DECFF801E80FF91F10829E
:100D8000332011F02DE22983E32DF0E09F01280F9D
:100D9000391F800F911F41E050E04C0F5D1FE40FA1
:100DA000F51F0817190729F0DC014E91CD01419379
:100DB000F8CFE1E0F0E0EC0FFD1FE20FF31F10822F
:100DC00084CF1F920F920FB60F9211242F933F934F
:100DD0008F939F93AF93BF938091190190911A01C4
:100DE000A0911B01B0911C013091180123E0230F49
:100DF0002D3758F50196A11DB11D20931801809340
:100E0000190190931A01A0931B01B0931C018091CA
:100E10001D0190911E01A0911F01B091200101962A
:100E2000A11DB11D80931D0190931E01A0931F0170
:100E3000B0932001BF91AF919F918F913F912F91DE
:100E40000F900FBE0F901F90189526E8230F029663
:100E5000A11DB11DD2CF789484B5826084BD84B5C4
:100E6000816084BD85B5826085BD85B5816085BDA5
:100E700080916E00816080936E001092810080915D
:100E800081008260809381008091810081608093E5
:100E90008100809180008160809380008091B1000A
:100EA00084608093B1008091B00081608093B00035
:100EB00080917A00846080937A0080917A008260C9
:100EC00080937A0080917A00816080937A0080918B
:100ED0007A00806880937A001092C100809131017D
:100EE000E0912901F0912A019081892B80838091E2
:100EF0003001E0912701F09128019081892B8083B6
:100F000080912F01E0912501F09126019081892B9C
:100F1000808380913301E0912D01F0912E01908129
:100F2000892B808380913201E0912B01F0912C017B
:100F300090818095892380836AE070E080E090E072
:100F40000E94B80480913201E0912B01F0912C01B4
:100F50009081892B808360E081E20E94400260E002
:100F600086EC0E94400260E086E00E94400260E061
:100F700083E10E94400260E080E20E94400260E063
:100F800080E40E94400260E080E80E94400260E04D
:100F90008CE00E94400285E393E00DE311E0F8014C
:100FA00011928F018E179F07D1F70E94880210922D
:100FB0003701109236011092350386E490E0909349
:100FC00037038093360388248A9483E0982EA12CDB
:100FD000B12C99E8292E91E0392EF2E4F0937C00AF
:100FE00080917A00806480937A0080917A0086FDF7
:100FF000FCCF80917800C0917900DC2FC82F2E01A2
:101000000D2E000C660877082FE430E0DE010E9408
:10101000840BA50194010E941F0A69017A0182E0F4
:10102000C80ED11CE11CF11CEDE3F1E01192E017B8
:10103000F107E1F73092370120923601F1018491F6
:1010400080933801EAE8F1E0849180933901EBE87C
:10105000F1E0849180933A01ECE8F1E0849180938F
:101060003B0110923C012AE030E04AE050E0C3012D
:10107000B2010E943F0688E690E09093370180938A
:101080003601FC01849180933801E9E6F0E0849117
:1010900080933901EAE6F0E0849180933A01EBE62F
:1010A000F0E0849180933B0110923C0150E040E0DD
:1010B0006EE077E280E091E00E94EA044FE450E0C5
:1010C00066E270E082E090E00E94EC024FE450E0C3
:1010D0006FE270E082E090E00E94EC0249E050E0B4
:1010E00066E270E082E090E00E94C5024AE050E0D3
:1010F00066E270E081E590E00E94C5020E948802ED
:1011000047E250E0B60187E290E00E94180348E20F
:1011100050E0B60188E290E00E94180349E250E0F6
:10112000B60189E290E00E9418034AE250E0B6015D
:101130008AE290E00E9418034BE250E0B6018BE295
:1011400090E00E9418034CE250E0B6018CE290E07F
:101150000E9418034DE250E0B6018DE290E00E943B
:1011600018034EE250E0B6018EE290E00E941803B0
:1011700080912301909124018C179D0724F4D09332
:101180002401C0932301C0912301D0912401C436CE
:10119000D10524F41092220110922101CE0185562E
:1011A0009109CB9730F481E090E0909322018093F5
:1011B0002101CE01825A9109869730F482E090E0B5
:1011C0009093220180932101CE018A5C91094C9772
:1011D00030F4E3E0F0E0F0932201E09321014FE0EE
:1011E00050E067E370E08BE091E00E94EA0449E19F
:1011F00050E067E370E081E191E00E94EA04BE0103
:10120000DD0F880B990B2FE030E048E450E00E949E
:101210003F066091210170912201072E000C880B7E
:10122000990B29E130E04BE450E00E943F060E9418
:10123000880264E670E080E090E00E94B80480E0FC
:1012400090E0892B09F4C9CE0E940000C6CECF934E
:10125000DF93EBECF3E0E491F0E0EE0FFF1FE155DC
:10126000FC4F85919491C5E2D1E099838883EFED9D
:10127000F3E0E491EA87ECECF3E0E491F0E0EE0FC8
:10128000FF1FE155FC4F859194919B838A83E0EE8B
:10129000F3E0E491EB87EDECF3E0E491F0E0EE0FA6
:1012A000FF1FE155FC4F859194919D838C83E1EE66
:1012B000F3E0E491EC87EEECF3E0E491F0E0EE0F84
:1012C000FF1FE155FC4F859194919F838E83E2EE41
:1012D000F3E0E491ED87EFECF3E0E491F0E0EE0F62
:1012E000FF1FE155FC4F8591949199878887E3EE24
:1012F000F3E0E491EE8788E00E94210289E00E94F9
:1013000021028AE00E9421028BE00E9421028CE0EF
:101310000E94210288E08F878BE0888BDF91CF913C
:101320000895E89409C097FB3EF4909580957095D8
:1013300061957F4F8F4F9F4F9923A9F0F92F96E921
:10134000BB279395F695879577956795B795F11196
:10135000F8CFFAF4BB0F11F460FF1BC06F5F7F4F33
:101360008F4F9F4F16C0882311F096E911C0772345
:1013700021F09EE8872F762F05C0662371F096E84E
:10138000862F70E060E02AF09A95660F771F881F1D
:10139000DAF7880F9695879597F9089597F99F67DB
:1013A00080E870E060E008959FEF80EC08950024ED
:1013B0000A941616170618060906089500240A94BA
:1013C00012161306140605060895092E0394000C40
:1013D00011F4882352F0BB0F40F4BF2B11F460FFCF
:1013E00004C06F5F7F4F8F4F9F4F089557FD9058F8
:1013F000440F551F59F05F3F71F04795880F97FBD9
:10140000991F61F09F3F79F0879508951216130692
:101410001406551FF2CF4695F1DF08C016161706C1
:101420001806991FF1CF86957105610508940895F6
:10143000E894BB2766277727CB0197F90895052EF7
:1014400097FB1EF400940E94360A57FD07D00E94B5
:101450003E0A07FC03D04EF40C94360A5095409592
:10146000309521953F4F4F4F5F4F08959095809550
:10147000709561957F4F8F4F9F4F0895A1E21A2E6F
:10148000AA1BBB1BFD010DC0AA1FBB1FEE1FFF1F28
:10149000A217B307E407F50720F0A21BB30BE40B78
:1014A000F50B661F771F881F991F1A9469F76095BF
:1014B0007095809590959B01AC01BD01CF01089579
:1014C000A29FB001B39FC001A39F700D811D112485
:1014D000911DB29F700D811D1124911D08955058CA
:1014E000BB27AA270E94870A0C94E5090E94D70906
:1014F00038F00E94DE0920F039F49F3F19F426F4F9
:101500000C94D4090EF4E095E7FB0C94CE09E92F76
:101510000E94F60958F3BA17620773078407950704
:1015200020F079F4A6F50C94180A0EF4E0950B2E31
:10153000BA2FA02D0B01B90190010C01CA01A00125
:101540001124FF27591B99F0593F50F4503E68F180
:101550001A16F040A22F232F342F4427585FF3CFC1
:10156000469537952795A795F0405395C9F77EF492
:101570001F16BA0B620B730B840BBAF09150A1F0DB
:10158000FF0FBB1F661F771F881FC2F70EC0BA0F61
:10159000621F731F841F48F4879577956795B795E9
:1015A000F7959E3F08F0B0CF9395880F08F09927E4
:1015B000EE0F9795879508950E94F00A0C94E5091F
:1015C0000E94DE0958F00E94D70940F029F45F3FDD
:1015D00029F00C94CE0951110C94190A0C94D409D9
:1015E0000E94F60968F39923B1F3552391F3951BF3
:1015F000550BBB27AA2762177307840738F09F5F34
:101600005F4F220F331F441FAA1FA9F335D00E2EA0
:101610003AF0E0E832D091505040E695001CCAF70D
:101620002BD0FE2F29D0660F771F881FBB1F2617D0
:1016300037074807AB07B0E809F0BB0B802DBF01A7
:10164000FF2793585F4F3AF09E3F510578F00C9476
:10165000CE090C94190A5F3FE4F3983ED4F38695C3
:1016600077956795B795F7959F5FC9F7880F911D97
:101670009695879597F90895E1E0660F771F881F83
:10168000BB1F621773078407BA0720F0621B730B36
:10169000840BBA0BEE1F88F7E09508950E94550B56
:1016A0006894B1110C94190A08950E94FE0988F0FB
:1016B0009F5798F0B92F9927B751B0F0E1F0660F16
:1016C000771F881F991F1AF0BA95C9F714C0B13057
:1016D00091F00E94180AB1E008950C94180A672F3F
:1016E000782F8827B85F39F0B93FCCF38695779586
:1016F0006795B395D9F73EF490958095709561956F
:101700007F4F8F4F9F4F08950E94600AB7FF089543
:10171000821B930B0895EE0FFF1F0590F491E02DAF
:061720000994F894FFCFCC
:10172600414C4B4F4C4D45545245004D41583A2083
:0817360000445A4E463A20001F
:00000001FF
